{"abi":[{"type":"function","name":"add","inputs":[{"name":"a","type":"uint256","internalType":"uint256"},{"name":"b","type":"uint256","internalType":"uint256"}],"outputs":[{"name":"","type":"uint256","internalType":"uint256"}],"stateMutability":"pure"},{"type":"function","name":"divide","inputs":[{"name":"a","type":"uint256","internalType":"uint256"},{"name":"b","type":"uint256","internalType":"uint256"}],"outputs":[{"name":"","type":"uint256","internalType":"uint256"}],"stateMutability":"pure"},{"type":"function","name":"multiply","inputs":[{"name":"a","type":"uint256","internalType":"uint256"},{"name":"b","type":"uint256","internalType":"uint256"}],"outputs":[{"name":"","type":"uint256","internalType":"uint256"}],"stateMutability":"pure"},{"type":"function","name":"subtract","inputs":[{"name":"a","type":"uint256","internalType":"uint256"},{"name":"b","type":"uint256","internalType":"uint256"}],"outputs":[{"name":"","type":"uint256","internalType":"uint256"}],"stateMutability":"pure"}],"bytecode":{"object":"0x6080604052348015600f57600080fd5b506102088061001f6000396000f3fe608060405234801561001057600080fd5b506004361061004c5760003560e01c8063165c4a16146100515780633ef5e44514610076578063771602f714610089578063f88e9fbf1461009c575b600080fd5b61006461005f36600461013b565b6100af565b60405190815260200160405180910390f35b61006461008436600461013b565b6100c4565b61006461009736600461013b565b6100d0565b6100646100aa36600461013b565b6100dc565b60006100bb8284610173565b90505b92915050565b60006100bb828461018a565b60006100bb828461019d565b60008082116101315760405162461bcd60e51b815260206004820152601f60248201527f4469766973696f6e206279207a65726f206973206e6f7420616c6c6f77656400604482015260640160405180910390fd5b6100bb82846101b0565b6000806040838503121561014e57600080fd5b50508035926020909101359150565b634e487b7160e01b600052601160045260246000fd5b80820281158282048414176100be576100be61015d565b818103818111156100be576100be61015d565b808201808211156100be576100be61015d565b6000826101cd57634e487b7160e01b600052601260045260246000fd5b50049056fea2646970667358221220688c2f58cf47eb4c515b076adc06de801ac60fbcac434ff3267b21dc650b5c6864736f6c634300081c0033","linkReferences":{}},"methodIdentifiers":{"add(uint256,uint256)":"771602f7","divide(uint256,uint256)":"f88e9fbf","multiply(uint256,uint256)":"165c4a16","subtract(uint256,uint256)":"3ef5e445"},"id":0}