{"abi":[{"type":"constructor","inputs":[],"stateMutability":"nonpayable"},{"type":"function","name":"add","inputs":[{"name":"a","type":"uint256","internalType":"uint256"},{"name":"b","type":"uint256","internalType":"uint256"}],"outputs":[{"name":"","type":"uint256","internalType":"uint256"}],"stateMutability":"pure"},{"type":"function","name":"allowance","inputs":[{"name":"owner","type":"address","internalType":"address"},{"name":"spender","type":"address","internalType":"address"}],"outputs":[{"name":"","type":"uint256","internalType":"uint256"}],"stateMutability":"view"},{"type":"function","name":"approve","inputs":[{"name":"spender","type":"address","internalType":"address"},{"name":"value","type":"uint256","internalType":"uint256"}],"outputs":[{"name":"","type":"bool","internalType":"bool"}],"stateMutability":"nonpayable"},{"type":"function","name":"balanceOf","inputs":[{"name":"account","type":"address","internalType":"address"}],"outputs":[{"name":"","type":"uint256","internalType":"uint256"}],"stateMutability":"view"},{"type":"function","name":"decimals","inputs":[],"outputs":[{"name":"","type":"uint8","internalType":"uint8"}],"stateMutability":"view"},{"type":"function","name":"divide","inputs":[{"name":"a","type":"uint256","internalType":"uint256"},{"name":"b","type":"uint256","internalType":"uint256"}],"outputs":[{"name":"","type":"uint256","internalType":"uint256"}],"stateMutability":"pure"},{"type":"function","name":"multiply","inputs":[{"name":"a","type":"uint256","internalType":"uint256"},{"name":"b","type":"uint256","internalType":"uint256"}],"outputs":[{"name":"","type":"uint256","internalType":"uint256"}],"stateMutability":"pure"},{"type":"function","name":"name","inputs":[],"outputs":[{"name":"","type":"string","internalType":"string"}],"stateMutability":"view"},{"type":"function","name":"subtract","inputs":[{"name":"a","type":"uint256","internalType":"uint256"},{"name":"b","type":"uint256","internalType":"uint256"}],"outputs":[{"name":"","type":"uint256","internalType":"uint256"}],"stateMutability":"pure"},{"type":"function","name":"symbol","inputs":[],"outputs":[{"name":"","type":"string","internalType":"string"}],"stateMutability":"view"},{"type":"function","name":"totalSupply","inputs":[],"outputs":[{"name":"","type":"uint256","internalType":"uint256"}],"stateMutability":"view"},{"type":"function","name":"transfer","inputs":[{"name":"to","type":"address","internalType":"address"},{"name":"value","type":"uint256","internalType":"uint256"}],"outputs":[{"name":"","type":"bool","internalType":"bool"}],"stateMutability":"nonpayable"},{"type":"function","name":"transferFrom","inputs":[{"name":"from","type":"address","internalType":"address"},{"name":"to","type":"address","internalType":"address"},{"name":"value","type":"uint256","internalType":"uint256"}],"outputs":[{"name":"","type":"bool","internalType":"bool"}],"stateMutability":"nonpayable"},{"type":"event","name":"Approval","inputs":[{"name":"owner","type":"address","indexed":true,"internalType":"address"},{"name":"spender","type":"address","indexed":true,"internalType":"address"},{"name":"value","type":"uint256","indexed":false,"internalType":"uint256"}],"anonymous":false},{"type":"event","name":"Transfer","inputs":[{"name":"from","type":"address","indexed":true,"internalType":"address"},{"name":"to","type":"address","indexed":true,"internalType":"address"},{"name":"value","type":"uint256","indexed":false,"internalType":"uint256"}],"anonymous":false},{"type":"error","name":"ERC20InsufficientAllowance","inputs":[{"name":"spender","type":"address","internalType":"address"},{"name":"allowance","type":"uint256","internalType":"uint256"},{"name":"needed","type":"uint256","internalType":"uint256"}]},{"type":"error","name":"ERC20InsufficientBalance","inputs":[{"name":"sender","type":"address","internalType":"address"},{"name":"balance","type":"uint256","internalType":"uint256"},{"name":"needed","type":"uint256","internalType":"uint256"}]},{"type":"error","name":"ERC20InvalidApprover","inputs":[{"name":"approver","type":"address","internalType":"address"}]},{"type":"error","name":"ERC20InvalidReceiver","inputs":[{"name":"receiver","type":"address","internalType":"address"}]},{"type":"error","name":"ERC20InvalidSender","inputs":[{"name":"sender","type":"address","internalType":"address"}]},{"type":"error","name":"ERC20InvalidSpender","inputs":[{"name":"spender","type":"address","internalType":"address"}]}],"bytecode":{"object":"0x608060405234801561001057600080fd5b506040518060400160405280600a81526020016921b0b631bab630ba37b960b11b8152506040518060400160405280600481526020016343414c4360e01b815250816003908161006091906102b1565b50600461006d82826102b1565b50505061009f336100826100a460201b60201c565b61008d90600a61046e565b61009a90620f4240610484565b6100a9565b6104ae565b601290565b6001600160a01b0382166100d85760405163ec442f0560e01b8152600060048201526024015b60405180910390fd5b6100e4600083836100e8565b5050565b6001600160a01b038316610113578060026000828254610108919061049b565b909155506101859050565b6001600160a01b038316600090815260208190526040902054818110156101665760405163391434e360e21b81526001600160a01b038516600482015260248101829052604481018390526064016100cf565b6001600160a01b03841660009081526020819052604090209082900390555b6001600160a01b0382166101a1576002805482900390556101c0565b6001600160a01b03821660009081526020819052604090208054820190555b816001600160a01b0316836001600160a01b03167fddf252ad1be2c89b69c2b068fc378daa952ba7f163c4a11628f55a4df523b3ef8360405161020591815260200190565b60405180910390a3505050565b634e487b7160e01b600052604160045260246000fd5b600181811c9082168061023c57607f821691505b60208210810361025c57634e487b7160e01b600052602260045260246000fd5b50919050565b601f8211156102ac57806000526020600020601f840160051c810160208510156102895750805b601f840160051c820191505b818110156102a95760008155600101610295565b50505b505050565b81516001600160401b038111156102ca576102ca610212565b6102de816102d88454610228565b84610262565b6020601f82116001811461031257600083156102fa5750848201515b600019600385901b1c1916600184901b1784556102a9565b600084815260208120601f198516915b828110156103425787850151825560209485019460019092019101610322565b50848210156103605786840151600019600387901b60f8161c191681555b50505050600190811b01905550565b634e487b7160e01b600052601160045260246000fd5b6001815b60018411156103c0578085048111156103a4576103a461036f565b60018416156103b257908102905b60019390931c928002610389565b935093915050565b6000826103d757506001610468565b816103e457506000610468565b81600181146103fa576002811461040457610420565b6001915050610468565b60ff8411156104155761041561036f565b50506001821b610468565b5060208310610133831016604e8410600b8410161715610443575081810a610468565b6104506000198484610385565b80600019048211156104645761046461036f565b0290505b92915050565b600061047d60ff8416836103c8565b9392505050565b80820281158282048414176104685761046861036f565b808201808211156104685761046861036f565b6108a3806104bd6000396000f3fe608060405234801561001057600080fd5b50600436106100cf5760003560e01c80633ef5e4451161008c57806395d89b411161006657806395d89b41146101af578063a9059cbb146101b7578063dd62ed3e146101ca578063f88e9fbf1461020357600080fd5b80633ef5e4451461016057806370a0823114610173578063771602f71461019c57600080fd5b806306fdde03146100d4578063095ea7b3146100f2578063165c4a161461011557806318160ddd1461013657806323b872dd1461013e578063313ce56714610151575b600080fd5b6100dc610216565b6040516100e9919061067d565b60405180910390f35b6101056101003660046106e7565b6102a8565b60405190151581526020016100e9565b610128610123366004610711565b6102c2565b6040519081526020016100e9565b600254610128565b61010561014c366004610733565b6102d5565b604051601281526020016100e9565b61012861016e366004610711565b6102f9565b610128610181366004610770565b6001600160a01b031660009081526020819052604090205490565b6101286101aa366004610711565b610305565b6100dc610311565b6101056101c53660046106e7565b610320565b6101286101d836600461078b565b6001600160a01b03918216600090815260016020908152604080832093909416825291909152205490565b610128610211366004610711565b61032e565b606060038054610225906107be565b80601f0160208091040260200160405190810160405280929190818152602001828054610251906107be565b801561029e5780601f106102735761010080835404028352916020019161029e565b820191906000526020600020905b81548152906001019060200180831161028157829003601f168201915b5050505050905090565b6000336102b681858561038e565b60019150505b92915050565b60006102ce828461080e565b9392505050565b6000336102e38582856103a0565b6102ee85858561041f565b506001949350505050565b60006102ce8284610825565b60006102ce8284610838565b606060048054610225906107be565b6000336102b681858561041f565b60008082116103845760405162461bcd60e51b815260206004820152601f60248201527f4469766973696f6e206279207a65726f206973206e6f7420616c6c6f7765640060448201526064015b60405180910390fd5b6102ce828461084b565b61039b838383600161047e565b505050565b6001600160a01b03838116600090815260016020908152604080832093861683529290522054600019811015610419578181101561040a57604051637dc7a0d960e11b81526001600160a01b0384166004820152602481018290526044810183905260640161037b565b6104198484848403600061047e565b50505050565b6001600160a01b03831661044957604051634b637e8f60e11b81526000600482015260240161037b565b6001600160a01b0382166104735760405163ec442f0560e01b81526000600482015260240161037b565b61039b838383610553565b6001600160a01b0384166104a85760405163e602df0560e01b81526000600482015260240161037b565b6001600160a01b0383166104d257604051634a1406b160e11b81526000600482015260240161037b565b6001600160a01b038085166000908152600160209081526040808320938716835292905220829055801561041957826001600160a01b0316846001600160a01b03167f8c5be1e5ebec7d5bd14f71427d1e84f3dd0314c0f7b2291e5b200ac8c7c3b9258460405161054591815260200190565b60405180910390a350505050565b6001600160a01b03831661057e5780600260008282546105739190610838565b909155506105f09050565b6001600160a01b038316600090815260208190526040902054818110156105d15760405163391434e360e21b81526001600160a01b0385166004820152602481018290526044810183905260640161037b565b6001600160a01b03841660009081526020819052604090209082900390555b6001600160a01b03821661060c5760028054829003905561062b565b6001600160a01b03821660009081526020819052604090208054820190555b816001600160a01b0316836001600160a01b03167fddf252ad1be2c89b69c2b068fc378daa952ba7f163c4a11628f55a4df523b3ef8360405161067091815260200190565b60405180910390a3505050565b602081526000825180602084015260005b818110156106ab576020818601810151604086840101520161068e565b506000604082850101526040601f19601f83011684010191505092915050565b80356001600160a01b03811681146106e257600080fd5b919050565b600080604083850312156106fa57600080fd5b610703836106cb565b946020939093013593505050565b6000806040838503121561072457600080fd5b50508035926020909101359150565b60008060006060848603121561074857600080fd5b610751846106cb565b925061075f602085016106cb565b929592945050506040919091013590565b60006020828403121561078257600080fd5b6102ce826106cb565b6000806040838503121561079e57600080fd5b6107a7836106cb565b91506107b5602084016106cb565b90509250929050565b600181811c908216806107d257607f821691505b6020821081036107f257634e487b7160e01b600052602260045260246000fd5b50919050565b634e487b7160e01b600052601160045260246000fd5b80820281158282048414176102bc576102bc6107f8565b818103818111156102bc576102bc6107f8565b808201808211156102bc576102bc6107f8565b60008261086857634e487b7160e01b600052601260045260246000fd5b50049056fea26469706673582212200a1660f66e212113c45da0824cbd85a32bd9a14779d8e1cb588aeb55783bd80364736f6c634300081c0033","linkReferences":{}},"methodIdentifiers":{"add(uint256,uint256)":"771602f7","allowance(address,address)":"dd62ed3e","approve(address,uint256)":"095ea7b3","balanceOf(address)":"70a08231","decimals()":"313ce567","divide(uint256,uint256)":"f88e9fbf","multiply(uint256,uint256)":"165c4a16","name()":"06fdde03","subtract(uint256,uint256)":"3ef5e445","symbol()":"95d89b41","totalSupply()":"18160ddd","transfer(address,uint256)":"a9059cbb","transferFrom(address,address,uint256)":"23b872dd"},"id":0}